{
  "contractName": "MultiSigWallet",
  "abi": [
    {
      "inputs": [
        {
          "internalType": "address[]",
          "name": "_owners",
          "type": "address[]"
        },
        {
          "internalType": "uint256",
          "name": "_approvalLimit",
          "type": "uint256"
        }
      ],
      "stateMutability": "nonpayable",
      "type": "constructor"
    },
    {
      "anonymous": false,
      "inputs": [
        {
          "indexed": false,
          "internalType": "uint256",
          "name": "",
          "type": "uint256"
        }
      ],
      "name": "deposited",
      "type": "event"
    },
    {
      "anonymous": false,
      "inputs": [
        {
          "components": [
            {
              "internalType": "address",
              "name": "creator",
              "type": "address"
            },
            {
              "internalType": "address",
              "name": "to",
              "type": "address"
            },
            {
              "internalType": "uint256",
              "name": "amount",
              "type": "uint256"
            },
            {
              "internalType": "uint256",
              "name": "approvals",
              "type": "uint256"
            },
            {
              "internalType": "string",
              "name": "status",
              "type": "string"
            }
          ],
          "indexed": false,
          "internalType": "struct MultiSigWallet.Transaction",
          "name": "",
          "type": "tuple"
        }
      ],
      "name": "transactionCreated",
      "type": "event"
    },
    {
      "anonymous": false,
      "inputs": [
        {
          "indexed": false,
          "internalType": "address",
          "name": "_to",
          "type": "address"
        },
        {
          "indexed": false,
          "internalType": "uint256",
          "name": "_amount",
          "type": "uint256"
        }
      ],
      "name": "transferProcessed",
      "type": "event"
    },
    {
      "inputs": [],
      "name": "balance",
      "outputs": [
        {
          "internalType": "uint256",
          "name": "",
          "type": "uint256"
        }
      ],
      "stateMutability": "view",
      "type": "function"
    },
    {
      "inputs": [],
      "name": "deposit",
      "outputs": [
        {
          "internalType": "uint256",
          "name": "",
          "type": "uint256"
        }
      ],
      "stateMutability": "payable",
      "type": "function"
    },
    {
      "inputs": [
        {
          "internalType": "address",
          "name": "_to",
          "type": "address"
        },
        {
          "internalType": "uint256",
          "name": "_amount",
          "type": "uint256"
        }
      ],
      "name": "createTransaction",
      "outputs": [],
      "stateMutability": "nonpayable",
      "type": "function"
    },
    {
      "inputs": [
        {
          "internalType": "uint256",
          "name": "_index",
          "type": "uint256"
        }
      ],
      "name": "approveTransaction",
      "outputs": [],
      "stateMutability": "nonpayable",
      "type": "function"
    },
    {
      "inputs": [],
      "name": "getOwner",
      "outputs": [
        {
          "internalType": "bool",
          "name": "",
          "type": "bool"
        }
      ],
      "stateMutability": "view",
      "type": "function"
    },
    {
      "inputs": [
        {
          "internalType": "uint256",
          "name": "_index",
          "type": "uint256"
        }
      ],
      "name": "getTransaction",
      "outputs": [
        {
          "components": [
            {
              "internalType": "address",
              "name": "creator",
              "type": "address"
            },
            {
              "internalType": "address",
              "name": "to",
              "type": "address"
            },
            {
              "internalType": "uint256",
              "name": "amount",
              "type": "uint256"
            },
            {
              "internalType": "uint256",
              "name": "approvals",
              "type": "uint256"
            },
            {
              "internalType": "string",
              "name": "status",
              "type": "string"
            }
          ],
          "internalType": "struct MultiSigWallet.Transaction",
          "name": "",
          "type": "tuple"
        }
      ],
      "stateMutability": "view",
      "type": "function"
    }
  ],
  "bytecode": "0x60806040523480156200001157600080fd5b5060405162001d1638038062001d168339818101604052810190620000379190620001d2565b60005b8251811015620000f257600160008085848151811062000083577f4e487b7100000000000000000000000000000000000000000000000000000000600052603260045260246000fd5b602002602001015173ffffffffffffffffffffffffffffffffffffffff1673ffffffffffffffffffffffffffffffffffffffff16815260200190815260200160002060006101000a81548160ff0219169083151502179055508080620000e990620002f8565b9150506200003a565b50806004819055505050620003e9565b600062000119620001138462000255565b6200022c565b905080838252602082019050828560208602820111156200013957600080fd5b60005b858110156200016d578162000152888262000177565b8452602084019350602083019250506001810190506200013c565b5050509392505050565b6000815190506200018881620003b5565b92915050565b600082601f830112620001a057600080fd5b8151620001b284826020860162000102565b91505092915050565b600081519050620001cc81620003cf565b92915050565b60008060408385031215620001e657600080fd5b600083015167ffffffffffffffff8111156200020157600080fd5b6200020f858286016200018e565b92505060206200022285828601620001bb565b9150509250929050565b6000620002386200024b565b9050620002468282620002c2565b919050565b6000604051905090565b600067ffffffffffffffff82111562000273576200027262000375565b5b602082029050602081019050919050565b6000620002918262000298565b9050919050565b600073ffffffffffffffffffffffffffffffffffffffff82169050919050565b6000819050919050565b620002cd82620003a4565b810181811067ffffffffffffffff82111715620002ef57620002ee62000375565b5b80604052505050565b60006200030582620002b8565b91507fffffffffffffffffffffffffffffffffffffffffffffffffffffffffffffffff8214156200033b576200033a62000346565b5b600182019050919050565b7f4e487b7100000000000000000000000000000000000000000000000000000000600052601160045260246000fd5b7f4e487b7100000000000000000000000000000000000000000000000000000000600052604160045260246000fd5b6000601f19601f8301169050919050565b620003c08162000284565b8114620003cc57600080fd5b50565b620003da81620002b8565b8114620003e657600080fd5b50565b61191d80620003f96000396000f3fe6080604052600436106100555760003560e01c80631e7f8f0f1461005a578063242232d11461008357806333ea3dc8146100ac578063893d20e8146100e9578063b69ef8a814610114578063d0e30db01461013f575b600080fd5b34801561006657600080fd5b50610081600480360381019061007c9190610ff1565b61015d565b005b34801561008f57600080fd5b506100aa60048036038101906100a5919061102d565b610485565b005b3480156100b857600080fd5b506100d360048036038101906100ce919061102d565b610971565b6040516100e09190611437565b60405180910390f35b3480156100f557600080fd5b506100fe610b25565b60405161010b919061133c565b60405180910390f35b34801561012057600080fd5b50610129610b78565b6040516101369190611459565b60405180910390f35b610147610b7e565b6040516101549190611459565b60405180910390f35b600115156000803373ffffffffffffffffffffffffffffffffffffffff1673ffffffffffffffffffffffffffffffffffffffff16815260200190815260200160002060009054906101000a900460ff161515146101ef576040517f08c379a00000000000000000000000000000000000000000000000000000000081526004016101e6906113b7565b60405180910390fd5b60008111610232576040517f08c379a000000000000000000000000000000000000000000000000000000000815260040161022990611377565b60405180910390fd5b600354811115610277576040517f08c379a000000000000000000000000000000000000000000000000000000000815260040161026e90611397565b60405180910390fd5b61027f610ec9565b600060018054905090506040518060a001604052803373ffffffffffffffffffffffffffffffffffffffff1681526020018573ffffffffffffffffffffffffffffffffffffffff168152602001848152602001600081526020016040518060400160405280600781526020017f70656e64696e67000000000000000000000000000000000000000000000000008152508152509150600182908060018154018082558091505060019003906000526020600020906005020160009091909190915060008201518160000160006101000a81548173ffffffffffffffffffffffffffffffffffffffff021916908373ffffffffffffffffffffffffffffffffffffffff16021790555060208201518160010160006101000a81548173ffffffffffffffffffffffffffffffffffffffff021916908373ffffffffffffffffffffffffffffffffffffffff160217905550604082015181600201556060820151816003015560808201518160040190805190602001906103fe929190610f24565b5050507f54055c48117c0eed9ac656ac0d2444f88ee9d1de66a375d90c18cc6619369370826040516104309190611437565b60405180910390a160018161044591906114c1565b6001805490501461047f577f4e487b7100000000000000000000000000000000000000000000000000000000600052600160045260246000fd5b50505050565b600115156000803373ffffffffffffffffffffffffffffffffffffffff1673ffffffffffffffffffffffffffffffffffffffff16815260200190815260200160002060009054906101000a900460ff16151514610517576040517f08c379a000000000000000000000000000000000000000000000000000000000815260040161050e906113b7565b60405180910390fd5b60018181548110610551577f4e487b7100000000000000000000000000000000000000000000000000000000600052603260045260246000fd5b906000526020600020906005020160000160009054906101000a900473ffffffffffffffffffffffffffffffffffffffff1673ffffffffffffffffffffffffffffffffffffffff163373ffffffffffffffffffffffffffffffffffffffff1614156105f1576040517f08c379a00000000000000000000000000000000000000000000000000000000081526004016105e8906113f7565b60405180910390fd5b600060018054905011610639576040517f08c379a0000000000000000000000000000000000000000000000000000000008152600401610630906113d7565b60405180910390fd5b604051602001610648906112fe565b6040516020818303038152906040528051906020012060018281548110610698577f4e487b7100000000000000000000000000000000000000000000000000000000600052603260045260246000fd5b90600052602060002090600502016004016040516020016106b991906112e7565b604051602081830303815290604052805190602001201461070f576040517f08c379a000000000000000000000000000000000000000000000000000000000815260040161070690611357565b60405180910390fd5b60001515600260003373ffffffffffffffffffffffffffffffffffffffff1673ffffffffffffffffffffffffffffffffffffffff168152602001908152602001600020600083815260200190815260200160002060009054906101000a900460ff161515146107b3576040517f08c379a00000000000000000000000000000000000000000000000000000000081526004016107aa90611417565b60405180910390fd5b6001600260003373ffffffffffffffffffffffffffffffffffffffff1673ffffffffffffffffffffffffffffffffffffffff168152602001908152602001600020600083815260200190815260200160002060006101000a81548160ff02191690831515021790555061087a600180838154811061085a577f4e487b7100000000000000000000000000000000000000000000000000000000600052603260045260246000fd5b906000526020600020906005020160030154610c6e90919063ffffffff16565b600182815481106108b4577f4e487b7100000000000000000000000000000000000000000000000000000000600052603260045260246000fd5b90600052602060002090600502016003018190555060045460018281548110610906577f4e487b7100000000000000000000000000000000000000000000000000000000600052603260045260246000fd5b9060005260206000209060050201600301541061096e5761096d6001828154811061095a577f4e487b7100000000000000000000000000000000000000000000000000000000600052603260045260246000fd5b9060005260206000209060050201610cbb565b5b50565b610979610ec9565b600182815481106109b3577f4e487b7100000000000000000000000000000000000000000000000000000000600052603260045260246000fd5b90600052602060002090600502016040518060a00160405290816000820160009054906101000a900473ffffffffffffffffffffffffffffffffffffffff1673ffffffffffffffffffffffffffffffffffffffff1673ffffffffffffffffffffffffffffffffffffffff1681526020016001820160009054906101000a900473ffffffffffffffffffffffffffffffffffffffff1673ffffffffffffffffffffffffffffffffffffffff1673ffffffffffffffffffffffffffffffffffffffff1681526020016002820154815260200160038201548152602001600482018054610a9c906115c6565b80601f0160208091040260200160405190810160405280929190818152602001828054610ac8906115c6565b8015610b155780601f10610aea57610100808354040283529160200191610b15565b820191906000526020600020905b815481529060010190602001808311610af857829003601f168201915b5050505050815250509050919050565b60008060003373ffffffffffffffffffffffffffffffffffffffff1673ffffffffffffffffffffffffffffffffffffffff16815260200190815260200160002060009054906101000a900460ff16905090565b60035481565b6000803411610bc2576040517f08c379a0000000000000000000000000000000000000000000000000000000008152600401610bb990611377565b60405180910390fd5b60006003549050610bde34600354610c6e90919063ffffffff16565b6003819055507fafa91cc6e54baca31bd478a68e8a24969db1efeb7d75c196b113a48db872b6b434604051610c139190611459565b60405180910390a1610c2e3482610c6e90919063ffffffff16565b60035414610c65577f4e487b7100000000000000000000000000000000000000000000000000000000600052600160045260246000fd5b60035491505090565b60008183610c7c91906114c1565b905082811015610cb5577f4e487b7100000000000000000000000000000000000000000000000000000000600052600160045260246000fd5b92915050565b60035481600201541115610d04576040517f08c379a0000000000000000000000000000000000000000000000000000000008152600401610cfb90611397565b60405180910390fd5b60006003549050610d3d8260010160009054906101000a900473ffffffffffffffffffffffffffffffffffffffff168360020154610ddd565b6040518060400160405280600881526020017f617070726f766564000000000000000000000000000000000000000000000000815250826004019080519060200190610d8a929190610f24565b50610da2826002015482610e7c90919063ffffffff16565b60035414610dd9577f4e487b7100000000000000000000000000000000000000000000000000000000600052600160045260246000fd5b5050565b610df281600354610e7c90919063ffffffff16565b6003819055508173ffffffffffffffffffffffffffffffffffffffff166108fc829081150290604051600060405180830381858888f19350505050158015610e3e573d6000803e3d6000fd5b507ffaba5415db5895ae89eef03dff8e5bad9637bce59e1f84239a61e444e10da4178282604051610e70929190611313565b60405180910390a15050565b600082821115610eb5577f4e487b7100000000000000000000000000000000000000000000000000000000600052600160045260246000fd5b8183610ec19190611517565b905092915050565b6040518060a00160405280600073ffffffffffffffffffffffffffffffffffffffff168152602001600073ffffffffffffffffffffffffffffffffffffffff1681526020016000815260200160008152602001606081525090565b828054610f30906115c6565b90600052602060002090601f016020900481019282610f525760008555610f99565b82601f10610f6b57805160ff1916838001178555610f99565b82800160010185558215610f99579182015b82811115610f98578251825591602001919060010190610f7d565b5b509050610fa69190610faa565b5090565b5b80821115610fc3576000816000905550600101610fab565b5090565b600081359050610fd6816118b9565b92915050565b600081359050610feb816118d0565b92915050565b6000806040838503121561100457600080fd5b600061101285828601610fc7565b925050602061102385828601610fdc565b9150509250929050565b60006020828403121561103f57600080fd5b600061104d84828501610fdc565b91505092915050565b61105f8161154b565b82525050565b61106e8161154b565b82525050565b61107d8161155d565b82525050565b600061108e82611489565b6110988185611494565b93506110a8818560208601611593565b6110b181611656565b840191505092915050565b600081546110c9816115c6565b6110d381866114b6565b945060018216600081146110ee57600181146110ff57611132565b60ff19831686528186019350611132565b61110885611474565b60005b8381101561112a5781548189015260018201915060208101905061110b565b838801955050505b50505092915050565b60006111486038836114a5565b915061115382611667565b604082019050919050565b600061116b6025836114a5565b9150611176826116b6565b604082019050919050565b600061118e6024836114a5565b915061119982611705565b604082019050919050565b60006111b16039836114a5565b91506111bc82611754565b604082019050919050565b60006111d4602c836114a5565b91506111df826117a3565b604082019050919050565b60006111f76034836114a5565b9150611202826117f2565b604082019050919050565b600061121a6007836114b6565b915061122582611841565b600782019050919050565b600061123d6025836114a5565b91506112488261186a565b604082019050919050565b600060a08301600083015161126b6000860182611056565b50602083015161127e6020860182611056565b50604083015161129160408601826112c9565b5060608301516112a460608601826112c9565b50608083015184820360808601526112bc8282611083565b9150508091505092915050565b6112d281611589565b82525050565b6112e181611589565b82525050565b60006112f382846110bc565b915081905092915050565b60006113098261120d565b9150819050919050565b60006040820190506113286000830185611065565b61133560208301846112d8565b9392505050565b60006020820190506113516000830184611074565b92915050565b600060208201905081810360008301526113708161113b565b9050919050565b600060208201905081810360008301526113908161115e565b9050919050565b600060208201905081810360008301526113b081611181565b9050919050565b600060208201905081810360008301526113d0816111a4565b9050919050565b600060208201905081810360008301526113f0816111c7565b9050919050565b60006020820190508181036000830152611410816111ea565b9050919050565b6000602082019050818103600083015261143081611230565b9050919050565b600060208201905081810360008301526114518184611253565b905092915050565b600060208201905061146e60008301846112d8565b92915050565b60008190508160005260206000209050919050565b600081519050919050565b600082825260208201905092915050565b600082825260208201905092915050565b600081905092915050565b60006114cc82611589565b91506114d783611589565b9250827fffffffffffffffffffffffffffffffffffffffffffffffffffffffffffffffff0382111561150c5761150b6115f8565b5b828201905092915050565b600061152282611589565b915061152d83611589565b9250828210156115405761153f6115f8565b5b828203905092915050565b600061155682611569565b9050919050565b60008115159050919050565b600073ffffffffffffffffffffffffffffffffffffffff82169050919050565b6000819050919050565b60005b838110156115b1578082015181840152602081019050611596565b838111156115c0576000848401525b50505050565b600060028204905060018216806115de57607f821691505b602082108114156115f2576115f1611627565b5b50919050565b7f4e487b7100000000000000000000000000000000000000000000000000000000600052601160045260246000fd5b7f4e487b7100000000000000000000000000000000000000000000000000000000600052602260045260246000fd5b6000601f19601f8301169050919050565b7f546865206f7574636f6d65206f662074686973207472616e73616374696f6e2060008201527f68617320616c7265616479206265656e20736574746c65640000000000000000602082015250565b7f596f75206d7573742073656e642061206e6f6e2d7a65726f206574686572206160008201527f6d6f756e74000000000000000000000000000000000000000000000000000000602082015250565b7f54686520616d6f756e7420657863656564732074686520746f74616c2062616c60008201527f616e636500000000000000000000000000000000000000000000000000000000602082015250565b7f596f7520646f206e6f742068617665207468652070726976696c65676573207460008201527f6f206361727279206f757420746869732066756e6374696f6e00000000000000602082015250565b7f546865726520617265206e6f2070656e64696e67207472616e73616374696f6e60008201527f7320746f20617070726f76650000000000000000000000000000000000000000602082015250565b7f596f7520617265206e6f7420616c6c6f77656420746f20617070726f7665207960008201527f6f7572206f776e207472616e73616374696f6e73000000000000000000000000602082015250565b7f70656e64696e6700000000000000000000000000000000000000000000000000600082015250565b7f546865207472616e73616374696f6e2063616e2774206265207369676e65642060008201527f7477696365000000000000000000000000000000000000000000000000000000602082015250565b6118c28161154b565b81146118cd57600080fd5b50565b6118d981611589565b81146118e457600080fd5b5056fea26469706673582212203f4ac671bdf9d0c25262e21bcde8bae22bd34a3de32798a95c1c0a5d91840cdd64736f6c63430008030033",
  "immutableReferences": {},
  "source": "pragma solidity 0.8.3;\r\npragma abicoder v2;\r\nimport \"./SafeMath.sol\";\r\n\r\n\r\ncontract MultiSigWallet {\r\n\r\n    using SafeMath for uint;\r\n\r\n    mapping(address => bool) private owners;\r\n\r\n    struct Transaction {\r\n        address creator;\r\n        address to;\r\n        uint amount;\r\n        uint approvals;\r\n        string status;\r\n    }\r\n\r\n    Transaction[] private transactions;\r\n\r\n    mapping(address => mapping(uint => bool)) signersMapping;\r\n\r\n    uint public balance;\r\n\r\n    uint private approvalLimit;\r\n\r\n    modifier onlyOwner()  {\r\n        require(owners[msg.sender] == true, \"You do not have the privileges to carry out this function\");\r\n        _;\r\n    }\r\n\r\n    event deposited(uint);\r\n\r\n    event transactionCreated(Transaction);\r\n\r\n    event transferProcessed(address _to, uint _amount);\r\n\r\n\r\n    constructor(address[] memory _owners, uint _approvalLimit){\r\n\r\n        for(uint i=0; i < _owners.length; i++){\r\n            owners[_owners[i]] = true;\r\n        }\r\n\r\n        approvalLimit = _approvalLimit;\r\n\r\n    }\r\n\r\n\r\n    function deposit() public payable returns(uint)  {\r\n        require(msg.value > 0 ether, \"You must send a non-zero ether amount\");\r\n\r\n        uint balanceBeforeChange = balance;\r\n\r\n        balance = balance.add(msg.value);\r\n        /* balance += msg.value; */\r\n\r\n        emit deposited(msg.value);\r\n\r\n        assert(balance == balanceBeforeChange.add(msg.value));\r\n\r\n        return balance;\r\n    }\r\n\r\n    function createTransaction(address _to, uint _amount) public onlyOwner{\r\n        require(_amount > 0 ether, \"You must send a non-zero ether amount\");\r\n        require(_amount <= balance, \"The amount exceeds the total balance\");\r\n\r\n        Transaction memory _transaction;\r\n\r\n        uint oldTransactionsSize = transactions.length;\r\n\r\n        _transaction = Transaction({creator: msg.sender, to: _to, amount: _amount, approvals: 0 , status: \"pending\"});\r\n\r\n        transactions.push(_transaction);\r\n\r\n        emit transactionCreated(_transaction);\r\n\r\n        assert(transactions.length == oldTransactionsSize + 1);\r\n\r\n    }\r\n\r\n    function approveTransaction(uint _index) public onlyOwner {\r\n        require(msg.sender != transactions[_index].creator, \"You are not allowed to approve your own transactions\");\r\n        require(transactions.length > 0, \"There are no pending transactions to approve\");\r\n        require(keccak256(abi.encodePacked(transactions[_index].status)) == keccak256(abi.encodePacked(\"pending\")), \"The outcome of this transaction has already been settled\");\r\n        require(signersMapping[msg.sender][_index] == false, \"The transaction can't be signed twice\");\r\n\r\n        signersMapping[msg.sender][_index] = true;\r\n        transactions[_index].approvals = transactions[_index].approvals.add(1);\r\n        /* transactions[_index].approvals += 1; */\r\n\r\n        if(transactions[_index].approvals >= approvalLimit){\r\n            processTransaction(transactions[_index]);\r\n        }\r\n\r\n    }\r\n\r\n    function processTransaction(Transaction storage transaction) private {\r\n        require(transaction.amount <= balance, \"The amount exceeds the total balance\");\r\n\r\n            uint balanceBeforeChange = balance;\r\n\r\n            _transfer(transaction.to, transaction.amount);\r\n\r\n            transaction.status = \"approved\";\r\n\r\n        assert(balance == balanceBeforeChange.sub(transaction.amount));\r\n    }\r\n\r\n    function _transfer(address _to, uint _amount) private {\r\n        balance = balance.sub(_amount);\r\n        /* balance -= _amount; */\r\n        payable(_to).transfer(_amount);\r\n\r\n        emit transferProcessed(_to, _amount);\r\n    }\r\n\r\n    function getOwner() public view returns(bool){\r\n        return owners[msg.sender];\r\n\r\n    }\r\n\r\n    function getTransaction(uint _index) public view returns(Transaction memory) {\r\n        return (transactions[_index]);\r\n    }\r\n\r\n}\r\n",
  "sourcePath": "D:/Ivan On Tech Academy/MultiSig wallet/contracts/MultiSigWallet.sol",
  "compiler": {
    "name": "solc",
    "version": "0.8.3+commit.8d00100c.Emscripten.clang"
  },
  "schemaVersion": "3.3.4",
  "updatedAt": "2021-04-18T01:55:14.074Z",
  "networkType": "ethereum",
  "devdoc": {
    "kind": "dev",
    "methods": {},
    "version": 1
  },
  "userdoc": {
    "kind": "user",
    "methods": {},
    "version": 1
  }
}